:10100000FCEF14F0000902430002010080320904E1
:101010000000010202010005240010010424020264
:1010200005240600010524010001070582030800CC
:101030000209040100020A0000000705030208007B
:10104000000705810240000036034D00690063007F
:1010500072006F0063006800690070002000540097
:101060006500630068006E006F006C006F00670031
:1010700079002C00200049006E0063002E00120150
:10108000000202000008D8040A0000010102000169
:101090000E03550053004200740069006E00040303
:0410A000090400003F
:1028F20046C001F047C002F01200B2EC14F0840EA0
:10290200D56E1200016E01C0C9FFC7A0FED7C95023
:102912001200020118BF02D0010E1200000E1200B6
:102922008B9CB00E83EC14F0FF0E83EC14F0026E5D
:102932008B8C02501200356E3550176E186A196A68
:102942001A6A020E1B6E07EC16F012008B9CA00E88
:1029520083EC14F0FF0E83EC14F0026E8B8C0250A9
:102962001200000ED76E000ED66E000E456E000EDF
:10297200446E000E476E000E466E1200036E8B9C74
:10298200020E83EC14F0035083EC14F0025083EC3B
:1029920014F08B8C1200026E8B9C030E83EC14F0ED
:1029A200025083EC14F0FF0E83EC14F0036E8B8C58
:1029B20003501200046E8B9C050E83EC14F004503D
:1029C20083EC14F0025083EC14F0035083EC14F007
:1029D2008B8C1200066E06C002F02A0EBFEC14F0B9
:1029E20004C002F0290EBFEC14F005C002F0280E5C
:1029F200BFEC14F0120001EE00F0810EEE6AE80660
:102A0200FDE100EE3AF0190EEE6AE806FDE1000E75
:102A1200F86E000100EF19F009D015C0D9FF16C0F9
:102A2200DAFFDF5037EC15F0154A162A15C0D9FF28
:102A320016C0DAFFDF50D8B41200EFD70A50085C94
:102A42000B500958D8B004D008C00AF009C00BF0E6
:102A52000AC04AF00BC04BF0000E436E07C042F0B2
:102A620006C041F04CEC16F00A501200146E4E50A3
:102A7200800AD8B412004F50010D0101000EF32458
:102A8200D96E0101010EF420DA6E14C0DFFF4F2A65
:102A92004F50800AD8A402D0000E4F6E4E2AEEECA0
:102AA20019F012005150010D0201A00EF324D96E4B
:102AB2000201020EF420DA6EDF50016E512A5150EB
:102AC200020122EE19F0DF6208D0080E0201196F2E
:102AD200800E0201186F000E516E0150120044C0A8
:102AE20001F045C002F0011E021E014A022AD65020
:102AF2000126D7500222780E015C010E0258D8A09E
:102B02001200770E4426010E4522464A472A610EDC
:102B1200465CEA0E4758D8A01200000E476E000E1F
:102B2200466E1200076E0750FF0A026E200EBFECBF
:102B320014F00450FF0AE00B026E210EBFEC14F0F9
:102B4200000E026E220EBFEC14F0000E026E230E77
:102B5200BFEC14F00550FF0A026E240EBFEC14F015
:102B62000650FF0AE00B026E250EBFEC14F0000EB9
:102B7200026E260EBFEC14F0000E026E270EBFECA2
:102B820014F01200076E07C002F0000EBFEC14F042
:102B92000450E00B026E010EBFEC14F007C002F00D
:102BA200040EBFEC14F00450E00B0809026E050E8F
:102BB200BFEC14F005C002F0080EBFEC14F0065092
:102BC200E00B026E090EBFEC14F005C002F0100E0D
:102BD200BFEC14F00650E00B0809026E110EBFECB8
:102BE20014F0000E026E140EBFEC14F0000E026E12
:102BF200150EBFEC14F0000E026E180EBFEC14F0AE
:102C0200000E026E190EBFEC14F012001B50010DE3
:102C1200200EF324D96E000EF420DA6E000EDF6E61
:102C22002FD017500F0B346E090E346403D034507A
:102C3200370F02D03450300F346E1B50010D200E6E
:102C4200F324D96E000EF420DA6E34C0DFFF17C011
:102C52001CF018C01DF019C01EF01AC01FF0050E9E
:102C620005D0D8901F321E321D321C32E82EF9D701
:102C72001CC017F01DC018F01EC019F01FC01AF0BA
:102C82001B061B28D8A4CDD7000E166E200E156E7B
:102C92000DEC15F012004B504A10D8B412004AC085
:102CA20004F04BC005F0090E045C000E0558D8A0D4
:102CB20004D0000E056E080E046E000E036E1DD0C9
:102CC20041C0F6FF42C0F7FF43C0F8FF0350010DB9
:102CD2000201880EF324D96E0201020EF420DA6E8C
:102CE2000800F5CFDFFF010E4126000E4222000E42
:102CF20043224A06D8A04B06032A0350016E026AF9
:102D02000450015C05500258D8A0DAD704C005F27D
:102D1200020104AD04D0880E0201046F1200C80E35
:102D22000201046F12004E6601D012004950481091
:102D3200D8B4120002010CBF12004EC003F03F0EC5
:102D4200036402D03F0E036E4E5000084F24800FE2
:102D52007F0B026E000E016E1ED00250010D0101AA
:102D6200000EF324D96E0101010EF420DA6E015037
:102D7200010D0201A80EF324E16E0201020EF420FD
:102D8200E26EDFCFE7FF022A0250800AD8A402D007
:102D9200000E026E012A0350015CD8A0DED703C0E8
:102DA2000DF203504E5E02010CAD04D0880E0201FA
:102DB2000C6F1200C80E02010C6F1200800E02018D
:102DC200006F080E0201016F800E0201026F020EF7
:102DD2000201036F000E0201046F080E0201056F6B
:102DE200880E0201066F020E0201076F400E0201F9
:102DF2000C6F400E02010D6FA80E02010E6F020E43
:102E020002010F6F000E0201146F080E0201156F0E
:102E1200980E0201166F020E0201176F800E020158
:102E2200186F080E0201196FA00E02011A6F020E2E
:102E320002011B6F160E0F01536F1A0E0F01546F12
:102E42001A0E0F01556F1C0E0F01566F140E616E94
:102E5200080E646E1200400EC76E210EC66EC9CFF8
:102E620004F0000E046E9388949C949E939C8B8C29
:102E7200043EFED78B9CC00E83EC14F08B8C043E78
:102E8200FED7850E026E0F0EBFEC14F0000E026E1E
:102E9200600EBFEC14F0000E026E700EBFEC14F068
:102EA200000E026E200EBFEC14F0000E026E210E18
:102EB200BFEC14F0000E026E220EBFEC14F0000EF6
:102EC200026E230EBFEC14F0000E026E240EBFEC55
:102ED20014F0000E026E250EBFEC14F0000E026E0E
:102EE200260EBFEC14F0000E026E270EBFEC14F09B
:102EF200030E026E2B0EBFEC14F012000F6E56D0B2
:102F0200100E076E7E0E066E000E096E120E086E11
:102F12000DC00AF00EC00BF01FEC15F01200100EDF
:102F2200076E050E066E000E096E430E086E0DC08A
:102F32000AF00EC00BF01FEC15F01200100E076E17
:102F42009E0E066E000E096E040E086E0DC00AF08B
:102F52000EC00BF01FEC15F01200100E076E480E9B
:102F6200066E000E096E360E086E0DC00AF00EC017
:102F72000BF01FEC15F01200100E076E900E066E8D
:102F8200000E096E0E0E086E0DC00AF00EC00BF098
:102F92001FEC15F012000C50000AD8B4CFD7010A6A
:102FA200D8B4DBD7030AD8B4E7D70AD00F50010A46
:102FB200D8B4A6D7030AD8B4B2D7010AD8B4EBD78B
:102FC200000E120004C0D9FF05C0DAFFDE6ADE6A15
:102FD200DE6ADD6A6FD001C0D9FF02C0DAFFDF50BE
:102FE200D8A402D0000E120004C0D9FF05C0DAFF37
:102FF200040ED890DE36DE36DE36DD36D906D90648
:10300200E82EF7D701C0D9FF02C0DAFF2F0EDF6426
:103012000CD001C0D9FF02C0DAFFDF50066E3A0EB3
:10302200065CD8B002D0D00E25D001C0D9FF02C0B4
:10303200DAFF400EDF640CD001C0D9FF02C0DAFF14
:10304200DF50066E470E065CD8B002D0C90E12D011
:1030520001C0D9FF02C0DAFF600EDF6427D001C0D1
:10306200D9FF02C0DAFFDF50066E670E065CD8B0E9
:103072001DD0A90E066EFF0E076E01C0D9FF02C059
:10308200DAFFDF50086E096A065008260750092247
:1030920004C0D9FF05C0DAFF0850DE260950DE223F
:1030A200000EDE22DD22DD52DD5202D0000E1200C1
:1030B200014A022A03060328D8A48DD7010E120062
:1030C200010E146E10C0D9FF11C0DAFFDF50720A70
:1030D200D8B40AD010C0D9FF11C0DAFFDF50520AAB
:1030E200D8B402D0000E146E14B002D01F9001D0DA
:1030F2001F8010C0D9FF11C0DAFFDF50126E5A0EC6
:10310200125CD8B003D01F82080E02D01F92030EA9
:10311200156E010E1024016E000E1120026E15C0F4
:1031220003F0000E056E170E046EE3EC17F00009B3
:10313200D8A402D0000E120017C01BF018C01CF059
:1031420019C01DF01AC01EF01550126E136A010E3E
:103152001226000E132212501024016E1350112059
:10316200026E010E036E000E056E170E046EE3EC86
:1031720017F00009D8A402D0000E120017C020F0E8
:103182001FB036D0000E166E2FD01650020D1550FD
:10319200126E136AF3501226F4501322020E1226F4
:1031A200000E132212501024016E13501120026ED1
:1031B200020E036E000E056E170E046EE3EC17F09E
:1031C2000009D8A402D0000E12001650010D060EFE
:1031D200F326000EF4221B0EF324D96E000EF42007
:1031E200DA6E17C0DFFF162A2050165CD8A0CDD7A2
:1031F200000E046E1B0E036EEDEC1AF012002CECA6
:1032020017F0300ED36E000E7E6E000E7F6E939A14
:103212008A9A7EEC14F0DFEC16F0000E0101EB6FDF
:10322200EEEC19F070EC15F03CD053EC15F0010106
:10323200EA6F0101EA510D0AD8A419D00101EB513C
:10324200010D0101810EF324D96E0101010EF4205A
:10325200DA6E000EDF6E0101010E376E0101810E82
:10326200366E4BEC1DF0000E0101EB6F1AD001011E
:10327200EA510A0AD8B415D00101EB51010D01013E
:10328200810EF324D96E0101010EF420DA6E0101E0
:10329200EAC1DFFF630E0101EB5DD8B002D001018C
:1032A200EB2B8AEC14F00009D8A4BFD74D50D8B448
:1032B2007DD082A470D07AD079EC14F001C0E5F10F
:1032C20002C0E6F10101F0A102D0720E01D0740E2B
:1032D2000101E86F0101F0A305D0200E0101E85FB2
:1032E200080E01D0030E0101E76F0101E85137EC2E
:1032F20015F0ECC117F0EDC118F0EEC119F0EFC1F5
:103302001AF0E7C11BF007EC16F00101F151176E3C
:10331200186A196A1A6A010E1B6E07EC16F001018F
:10332200F0B126D0000E0101E96F1CD00101E95174
:10333200010D060EF326000EF4220101EC0EF32419
:10334200D96E0101010EF420DA6EDF50396E395068
:10335200176E186A196A1A6A020E1B6E07EC16F0CB
:103362000101E92B0101F1510101E95DD8A0DED78C
:1033720001018051D8B40CD00101E5C117F001015F
:10338200E6C118F0196A1A6A040E1B6E07EC16F0F1
:103392000D0E37EC15F00101010E066E0101EC0E67
:1033A200056EF3EC1BF00009D8A486D7000EF36A71
:1033B2004D62F32AF3CF39F0393A39468A50391837
:1033C200DF0B39188A6E80B62BD7000E646EFA0EA8
:1033D20000F0E82EFDD7FF0023D794EC16F062A68A
:1033E20012006366E9D000C210F0D8901032D89073
:1033F20010320F0E101610500D0AD8A4B6D0000EBF
:103402000201046F000E0201046F80C210F0600E10
:103412001016D8B432D052D082C20CF002018751B9
:103422000E6E020186510D6E020183517FEC17F080
:103432000009D8A4BAD082D082C252F07DD0020153
:10344200046FB3D082C250F0000E496E010E486E76
:1034520073D050C088F207D00201056FC80EEFD7B3
:10346200000E0201886F010EF7D7000E0201886F6D
:10347200000E0201896F020EEFD702018151000A8C
:10348200D8B4F3D7010AD8B457D0020AD8B454D06A
:10349200060AD8B4D1D7030AD8B4BED70E0AD8B414
:1034A200D8D7010AD8B4CED7030AD8B4D9D71B0AC1
:1034B200D8B442D0030AD8B4D8D740D080C210F0D2
:1034C200600E10161050200AD8B43DD06ED0000EF7
:1034D200116E0DD01150010D0201880EF324D96E28
:1034E2000201020EF420DA6E000EDF6E112A070EC0
:1034F2001164F0D7080EB0D7010E4C6E1DD0000E2D
:10350200126E15D01250010D3A0EF324D96E000E30
:10351200F420DA6E1250010D0201880EF324E16EDE
:103522000201020EF420E26EDFCFE7FF122A060E3E
:103532001264E8D7070E90D7000E8ED7000E020154
:10354200056FCC0E7CD702018151000AD8B4F4D7A2
:10355200010AD8B4BCD7210AD8B4CED7010AD8B44C
:10356200CED7030AD8B4E8D7E9D74C50D8B41DD087
:10357200000E136E15D01350010D0201800EF324BC
:10358200D96E0201020EF420DA6E1350010D3A0ECA
:10359200F324E16E000EF420E26EDFCFE7FF132A80
:1035A200060E1364E8D7000E4C6E080E0201016F7E
:1035B200800E0201006F0DD06350040AD8A409D016
:1035C2005250D8B404D052C05CFF000E526E4CEC84
:1035D20016F0649862961200A7EC14F00E6E20EEBC
:1035E20005F00350D9260450DA22080EDF6402D017
:1035F200000E12000EB402D0000E07D00EB802D098
:10360200020E03D00EBC03D0040E0F6E02D0000EC9
:1036120012008B9C0F50400983EC14F020EE04F052
:103622000350D9260450DA22DFA268D003C0D9FFA2
:1036320004C0DAFFDECF05F0DECF06F0DECF07F002
:10364200DECF08F0160E05D0D890083207320632C7
:103652000532E82EF9D7055083EC14F003C0D9FFE8
:1036620004C0DAFFDECF05F0DECF06F0DECF07F0D2
:10367200DECF08F0110E05D0D8900832073206329C
:103682000532E82EF9D7030E051603C0D9FF04C090
:10369200DAFFDECF09F0DECF0AF0DECF0BF0DECFAD
:1036A2000CF00E0E05D0D8900C320B320A320932D1
:1036B200E82EF9D70950E00B0510080983EC14F045
:1036C20003C0D9FF04C0DAFFDECF05F0DECF06F07B
:1036D200DECF07F0DECF08F006C005F007C006F027
:1036E20008C007F0086A055083EC14F003C0D9FF44
:1036F20004C0DAFFDF5083EC14F02DD003C0D9FFF1
:1037020004C0DAFFDECF05F0DECF06F0DECF07F031
:10371200DECF08F0040E05D0D89008320732063208
:103722000532E82EF9D7055083EC14F003C0D9FF17
:1037320004C0DAFFDF50056E050E066ED89005361E
:10374200062EFCD7055083EC14F0000E83EC14F027
:10375200000E83EC14F020EE04F00350D92604503E
:10376200DA22DFA00BD020EE05F00350D926045058
:10377200DA22DF50400983EC14F026D020EE05F067
:103782000350D9260450DA22DF5083EC14F0000EE5
:103792000D6E10D00D50010D060EF326000EF42210
:1037A200F3500324D96EF4500420DA6EDF5083EC18
:1037B20014F00D2A20EE05F00350D9260450DA2227
:1037C200DF500D5CD8A0E6D78B8C00F08B9C0F6687
:1037D20002D0010E0F6E0F50800983EC14F08B8C17
:1037E200010E120091EC14F0126E12AC02D0000E17
:1037F20003D012AE03D0040E116E02D0000E1200DE
:1038020012C007F0D8900732D8900732D89007320A
:10381200010E071620EE04F00550D9260650DA22D2
:10382200DF500718FE0B0718DF6E12C007F0073AC9
:103832000F0E0716010E071620EE04F00550D926CA
:103842000650DA220746DF500718FD0B0718DF6E15
:103852008B9C1150900983EC14F020EE04F005507B
:10386200D9260650DA22DFA299D0FF0E83EC14F09B
:10387200076E07C008F0096A0A6A0B6A150ED8902B
:10388200083609360A360B36E82EF9D705C0D9FFB5
:1038920006C0DAFF08C0DEFF09C0DEFF0AC0DEFF95
:1038A2000BC0DDFFD906D906FF0E83EC14F0076EBC
:1038B20007500C6E0D6A0E6A0F6AE00E0C14076E4A
:1038C200000E0D14086E000E0E14096E000E0F1479
:1038D2000A6E0D0ED8900736083609360A36E82EDB
:1038E200F9D705C0D9FF06C0DAFF0750DE1208502B
:1038F200DE120950DE120A50DD12DD52DD52030ED5
:103902000C14076E000E0D14086E000E0E14096ED4
:10391200000E0F140A6E08C00AF007C009F0086A08
:10392200076A05C0D9FF06C0DAFF0750DE12085049
:10393200DE120950DE120A50DD12DD52DD52FF0E98
:1039420083EC14F0076E07C008F0096A0A6A0B6A72
:103952000AC00BF009C00AF008C009F0086A05C0E5
:10396200D9FF06C0DAFF0850DE120950DE120A50F3
:10397200DE120B50DD12DD52DD52FF0E83EC14F02D
:10398200076E075005C0D9FF06C0DAFFDE12000E2F
:10399200DE12DE12DD12DD52DD523BD0FF0E83EC71
:1039A20014F0076E07C008F0096A0A6A0B6A030E70
:1039B200D890083609360A360B36E82EF9D705C0F4
:1039C200D9FF06C0DAFF08C0DEFF09C0DEFF0AC069
:1039D200DEFF0BC0DDFFD906D906FF0E83EC14F023
:1039E200076E050E086ED8900732082EFCD70750D6
:1039F20005C0D9FF06C0DAFFDE12000EDE12DE12AB
:103A0200DD12DD52DD52FF0E83EC14F0FF0E83EC6B
:103A120014F020EE05F00550D9260650DA22FF0EEA
:103A220083EC14F00F0BDF6E20EE04F00550D92664
:103A32000650DA22DFB01ED0000E106E11D01050E8
:103A4200010D060EF326000EF422F3500524D96E62
:103A5200F4500620DA6EFF0E83EC14F0DF6E102AAB
:103A620020EE05F00550D9260650DA22DF50105C10
:103A7200D8A0E5D78B8C116602D0010E01D0020EC0
:103A8200116E11C002F0000E036E2C0EDBEC14F06E
:103A9200010E1200070E00019F6F6ED24D66AAD270
:103AA20048D0AD0E046E060E056EFB0EEBEC14F064
:103AB20022D1AD0E046E060E056EDD0EEBEC14F097
:103AC2001AD1AD0E046E060E056ECB0EEBEC14F0A1
:103AD20012D1AD0E046E060E056EC50EEBEC14F09F
:103AE2000AD1A40E046E040E056EC50EEBEC14F0A2
:103AF20002D1A40E046E040E056EC20EEBEC14F09D
:103B0200FAD09A0E046E030E056EC10EEBEC14F0A1
:103B1200F2D0A30E046E040E056EC00EEBEC14F090
:103B2200EAD09A0E046E030E056EC00EEBEC14F092
:103B3200E2D020EE01F03650D9263750DA22DF509B
:103B4200300AD8B4AED7010AD8B4B3D7030AD8B46E
:103B5200B8D7010AD8B4BDD7070AD8B4C2D7010A68
:103B6200D8B4C7D7030AD8B4CCD7010AD8B4D1D7AE
:103B72000F0AD8B4D6D73ED24D663CD2010E3624B7
:103B8200016E000E3720026E020E036E0001000E5F
:103B9200056E0001620E046EE3EC17F00009D8B462
:103BA20029D2030E3624016E000E3720026E020E59
:103BB200036E0001000E056E0001660E046EE3EC5A
:103BC20017F00009D8B416D2050E3624016E000E85
:103BD2003720026E020E036E0001000E056E000118
:103BE2006A0E046EE3EC17F00009D8B403D266C083
:103BF20004F06AC005F000016251EBEC14F07BD0D6
:103C0200010E3624016E000E3720026E020E036E84
:103C12000001000E056E00016E0E046EE3EC17F05B
:103C22000009D8B4E7D100016E51CCEC14F00001C8
:103C3200606F000160519CEC14F05DD0010E3624DF
:103C4200016E000E3720026E020E036E0001000E9E
:103C5200056E0001720E046EE3EC17F00009D8B491
:103C6200C9D1030E3624016E000E3720026E020EF9
:103C7200036E0001000E056E0001760E046EE3EC89
:103C820017F00009D8B4B6D176C002F00001725123
:103C9200BFEC14F030D0560E37EC15F0010E9CEC50
:103CA20014F0000E9CEC14F026D0760E37EC15F0D2
:103CB200010E9CEC14F0040E9CEC14F01CD04E0E81
:103CC20037EC15F0FF0E176EFF0E186E000E196E10
:103CD200000E1A6E040E1B6E07EC16F00CD04D6629
:103CE20089D1E00E026E000E036E0F0EDBEC14F0B3
:103CF200B2EC14F00DD00D0E00019F6F7BD14D661A
:103D020079D1E00E026E400E036E0F0EDBEC14F062
:103D1200010E16D04D666ED1E00E026E600E036E7D
:103D22000F0EDBEC14F0020E0BD04D50D8B462D162
:103D3200E00E026E800E036E0F0EDBEC14F0000E2E
:103D42004D6ED9D74D04D8A455D137C011F036C025
:103D520010F061EC18F00009D8B44CD136C0D9FF8C
:103D620037C0DAFFDF50386E5A0E385CD8B004D054
:103D72005A0E37EC15F0BFD77A0E37EC15F0BBD7D9
:103D82002D0ECCEC14F000019E6F000E0001616F4D
:103D920000019EA102D0000161859EC038F0C00ED4
:103DA2003816D8B402D0000161879EC038F0180ED0
:103DB2003816D8B402D00001618B00019EAB02D04C
:103DC2000001618F460E37EC15F0000161519CEC49
:103DD20014F091D7010E3624016E000E3720026EC8
:103DE200010E036E0001000E056E00017A0E046ED4
:103DF200E3EC17F00009D8B4FDD000017D517A112F
:103E02007B117C11D8B402D0010E01D0000E010149
:103E1200806F71D74D66EED0010E3624016E000E12
:103E22003720026E020E036E0001000E056E0001C5
:103E32007E0E046EE3EC17F00009D8B4DBD0030E5B
:103E42003624016E000E3720026E020E036E000150
:103E5200000E056E0001820E046EE3EC17F00009FD
:103E6200D8B4C8D0050E3624016E000E3720026E7B
:103E7200020E036E0001000E056E0001860E046E36
:103E8200E3EC17F00009D8B4B5D0070E3624016E62
:103E9200000E3720026E020E036E0001000E056E48
:103EA20000018A0E046EE3EC17F00009D8B4A2D028
:103EB20082C004F086C005F08AC006F000017E517F
:103EC20093EC15F018D74D6695D0010E3624016E8D
:103ED200000E3720026E020E036E0001000E056E08
:103EE20000018E0E046EE3EC17F00009D8B482D004
:103EF200030E3624016E000E3720026E020E036E90
:103F02000001000E056E0001920E046EE3EC17F044
:103F12000009D8B46FD0050E3624016E000E37208A
:103F2200026E020E036E0001000E056E0001960E77
:103F3200046EE3EC17F00009D8B45CD0070E362407
:103F4200016E000E3720026E020E036E0001000E9B
:103F5200056E00019A0E046EE3EC17F00009D8B466
:103F620049D092C004F096C005F09AC006F0000154
:103F72008E51C3EC15F0BFD636C0D9FF37C0DAFF79
:103F8200DF50430AD8B4D1D6050AD8B4F9D6010A0B
:103F9200D8B436D60B0AD8B4BDD6010AD8B493D752
:103FA200030AD8B48CD6010AD8B499D61D0AD8B45B
:103FB200C9D6010AD8B472D5070AD8B4C3D6020A40
:103FC200D8B469D6010AD8B439D60D0AD8B402D702
:103FD200360AD8B494D6010AD8B41CD71F0AD8B46A
:103FE200B1D6010AD8B4C8D5070AD8B4ABD6020AEA
:0E3FF200D8B45BD600019F5137EC15F01200D9
:00000001FF
